{
  "address": "0x1FDD091135D471BB78a996b0fbed76E5B7446a3E",
  "abi": [
    {
      "inputs": [
        {
          "internalType": "address",
          "name": "owner_",
          "type": "address"
        },
        {
          "internalType": "address",
          "name": "factory_",
          "type": "address"
        },
        {
          "internalType": "contract ISwapRouter",
          "name": "swapRouter_",
          "type": "address"
        }
      ],
      "stateMutability": "nonpayable",
      "type": "constructor"
    },
    {
      "anonymous": false,
      "inputs": [
        {
          "indexed": true,
          "internalType": "address",
          "name": "user",
          "type": "address"
        },
        {
          "indexed": true,
          "internalType": "contract Authority",
          "name": "newAuthority",
          "type": "address"
        }
      ],
      "name": "AuthorityUpdated",
      "type": "event"
    },
    {
      "anonymous": false,
      "inputs": [
        {
          "indexed": true,
          "internalType": "address",
          "name": "user",
          "type": "address"
        },
        {
          "indexed": true,
          "internalType": "address",
          "name": "newOwner",
          "type": "address"
        }
      ],
      "name": "OwnerUpdated",
      "type": "event"
    },
    {
      "inputs": [
        {
          "internalType": "address",
          "name": "caller",
          "type": "address"
        }
      ],
      "name": "addCaller",
      "outputs": [],
      "stateMutability": "nonpayable",
      "type": "function"
    },
    {
      "inputs": [],
      "name": "authority",
      "outputs": [
        {
          "internalType": "contract Authority",
          "name": "",
          "type": "address"
        }
      ],
      "stateMutability": "view",
      "type": "function"
    },
    {
      "inputs": [
        {
          "internalType": "address",
          "name": "",
          "type": "address"
        }
      ],
      "name": "callers",
      "outputs": [
        {
          "internalType": "bool",
          "name": "",
          "type": "bool"
        }
      ],
      "stateMutability": "view",
      "type": "function"
    },
    {
      "inputs": [
        {
          "internalType": "address",
          "name": "caller",
          "type": "address"
        },
        {
          "internalType": "address",
          "name": "",
          "type": "address"
        },
        {
          "internalType": "bytes4",
          "name": "functionSig",
          "type": "bytes4"
        }
      ],
      "name": "canCall",
      "outputs": [
        {
          "internalType": "bool",
          "name": "",
          "type": "bool"
        }
      ],
      "stateMutability": "view",
      "type": "function"
    },
    {
      "inputs": [],
      "name": "factory",
      "outputs": [
        {
          "internalType": "address",
          "name": "",
          "type": "address"
        }
      ],
      "stateMutability": "view",
      "type": "function"
    },
    {
      "inputs": [
        {
          "internalType": "contract IMarket",
          "name": "repayMarket",
          "type": "address"
        },
        {
          "internalType": "contract IMarket",
          "name": "seizeMarket",
          "type": "address"
        },
        {
          "internalType": "address",
          "name": "borrower",
          "type": "address"
        },
        {
          "internalType": "uint256",
          "name": "maxRepay",
          "type": "uint256"
        },
        {
          "internalType": "address",
          "name": "poolPair",
          "type": "address"
        },
        {
          "internalType": "uint24",
          "name": "fee",
          "type": "uint24"
        },
        {
          "internalType": "uint24",
          "name": "pairFee",
          "type": "uint24"
        }
      ],
      "name": "liquidate",
      "outputs": [],
      "stateMutability": "nonpayable",
      "type": "function"
    },
    {
      "inputs": [],
      "name": "owner",
      "outputs": [
        {
          "internalType": "address",
          "name": "",
          "type": "address"
        }
      ],
      "stateMutability": "view",
      "type": "function"
    },
    {
      "inputs": [
        {
          "internalType": "address",
          "name": "caller",
          "type": "address"
        }
      ],
      "name": "removeCaller",
      "outputs": [],
      "stateMutability": "nonpayable",
      "type": "function"
    },
    {
      "inputs": [
        {
          "internalType": "contract Authority",
          "name": "newAuthority",
          "type": "address"
        }
      ],
      "name": "setAuthority",
      "outputs": [],
      "stateMutability": "nonpayable",
      "type": "function"
    },
    {
      "inputs": [
        {
          "internalType": "address",
          "name": "newOwner",
          "type": "address"
        }
      ],
      "name": "setOwner",
      "outputs": [],
      "stateMutability": "nonpayable",
      "type": "function"
    },
    {
      "inputs": [
        {
          "internalType": "contract ERC20",
          "name": "assetIn",
          "type": "address"
        },
        {
          "internalType": "uint256",
          "name": "amountIn",
          "type": "uint256"
        },
        {
          "internalType": "contract ERC20",
          "name": "assetOut",
          "type": "address"
        },
        {
          "internalType": "uint256",
          "name": "amountOutMinimum",
          "type": "uint256"
        },
        {
          "internalType": "uint24",
          "name": "fee",
          "type": "uint24"
        }
      ],
      "name": "swap",
      "outputs": [],
      "stateMutability": "nonpayable",
      "type": "function"
    },
    {
      "inputs": [],
      "name": "swapRouter",
      "outputs": [
        {
          "internalType": "contract ISwapRouter",
          "name": "",
          "type": "address"
        }
      ],
      "stateMutability": "view",
      "type": "function"
    },
    {
      "inputs": [
        {
          "internalType": "contract ERC20",
          "name": "asset",
          "type": "address"
        },
        {
          "internalType": "address",
          "name": "to",
          "type": "address"
        },
        {
          "internalType": "uint256",
          "name": "amount",
          "type": "uint256"
        }
      ],
      "name": "transfer",
      "outputs": [],
      "stateMutability": "nonpayable",
      "type": "function"
    },
    {
      "inputs": [
        {
          "internalType": "uint256",
          "name": "fee0",
          "type": "uint256"
        },
        {
          "internalType": "uint256",
          "name": "fee1",
          "type": "uint256"
        },
        {
          "internalType": "bytes",
          "name": "data",
          "type": "bytes"
        }
      ],
      "name": "uniswapV3FlashCallback",
      "outputs": [],
      "stateMutability": "nonpayable",
      "type": "function"
    },
    {
      "inputs": [
        {
          "internalType": "int256",
          "name": "amount0Delta",
          "type": "int256"
        },
        {
          "internalType": "int256",
          "name": "amount1Delta",
          "type": "int256"
        },
        {
          "internalType": "bytes",
          "name": "data",
          "type": "bytes"
        }
      ],
      "name": "uniswapV3SwapCallback",
      "outputs": [],
      "stateMutability": "nonpayable",
      "type": "function"
    }
  ],
  "transactionHash": "0x5a80ec3bc093f619819271d81080806f7e51ad95f5fa72b457a99fc12432615f",
  "args": [
    "0xeB2962b62C44138bBE094f2ff5a41e5C17152630",
    "0x1F98431c8aD98523631AE4a59f267346ea31F984",
    "0xE592427A0AEce92De3Edee1F18E0157C05861564"
  ],
  "numDeployments": 1,
  "solcInputHash": "a749b051c957ee114a281fa52f341622",
  "bytecode": "0x60c06040523480156200001157600080fd5b50604051620029f0380380620029f08339810160408190526200003491620000f3565b600080546001600160a01b03199081166001600160a01b03861690811783556001805430931683179055604051869333917f8292fce18fa69edf4db7b94ea2e58241df0ae57f97e0a6c9b29067028bf92d769190a36040516001600160a01b0382169033907fa3396fd7f6e0a21b50e5089d2da70d5ac0a3bbbd1f617a93f134b7638998019890600090a350506001600160a01b039182166080521660a0525062000147565b6001600160a01b0381168114620000f057600080fd5b50565b6000806000606084860312156200010957600080fd5b83516200011681620000da565b60208501519093506200012981620000da565b60408501519092506200013c81620000da565b809150509250925092565b60805160a05161284b620001a5600039600081816102230152818161069e015261078d01526000818161024a01528181610db40152818161103c0152818161133c01528181611709015281816118b00152611c42015261284b6000f3fe608060405234801561001057600080fd5b50600436106100f55760003560e01c8063b700961311610097578063c45a015511610066578063c45a015514610245578063e9cbafb01461026c578063eef21cd21461027f578063fa461e331461029257600080fd5b8063b7009613146101d8578063beabacc8146101eb578063bf7e214f146101fe578063c31c9c071461021e57600080fd5b80637bbf4a3f116100d35780637bbf4a3f14610135578063831595b31461016d57806389035090146101805780638da5cb5b1461019357600080fd5b806313af4035146100fa578063747293fb1461010f5780637a9e5e4b14610122575b600080fd5b61010d6101083660046121a4565b6102a5565b005b61010d61011d3660046121a4565b6103ae565b61010d6101303660046121a4565b610491565b6101586101433660046121a4565b60026020526000908152604090205460ff1681565b60405190151581526020015b60405180910390f35b61010d61017b3660046121e0565b6105ee565b61010d61018e36600461223b565b610805565b6000546101b39073ffffffffffffffffffffffffffffffffffffffff1681565b60405173ffffffffffffffffffffffffffffffffffffffff9091168152602001610164565b6101586101e63660046122c2565b61115f565b61010d6101f9366004612332565b6111df565b6001546101b39073ffffffffffffffffffffffffffffffffffffffff1681565b6101b37f000000000000000000000000000000000000000000000000000000000000000081565b6101b37f000000000000000000000000000000000000000000000000000000000000000081565b61010d61027a3660046123bc565b611299565b61010d61028d3660046121a4565b6114ee565b61010d6102a03660046123bc565b6115ce565b6102d3336000357fffffffff0000000000000000000000000000000000000000000000000000000016611cfd565b61033e576040517f08c379a000000000000000000000000000000000000000000000000000000000815260206004820152600c60248201527f554e415554484f52495a4544000000000000000000000000000000000000000060448201526064015b60405180910390fd5b600080547fffffffffffffffffffffffff00000000000000000000000000000000000000001673ffffffffffffffffffffffffffffffffffffffff83169081178255604051909133917f8292fce18fa69edf4db7b94ea2e58241df0ae57f97e0a6c9b29067028bf92d769190a350565b6103dc336000357fffffffff0000000000000000000000000000000000000000000000000000000016611cfd565b610442576040517f08c379a000000000000000000000000000000000000000000000000000000000815260206004820152600c60248201527f554e415554484f52495a454400000000000000000000000000000000000000006044820152606401610335565b73ffffffffffffffffffffffffffffffffffffffff16600090815260026020526040902080547fffffffffffffffffffffffffffffffffffffffffffffffffffffffffffffff00166001179055565b60005473ffffffffffffffffffffffffffffffffffffffff1633148061057457506001546040517fb70096130000000000000000000000000000000000000000000000000000000081523360048201523060248201526000357fffffffff0000000000000000000000000000000000000000000000000000000016604482015273ffffffffffffffffffffffffffffffffffffffff9091169063b700961390606401602060405180830381865afa158015610550573d6000803e3d6000fd5b505050506040513d601f19601f82011682018060405250810190610574919061240f565b61057d57600080fd5b600180547fffffffffffffffffffffffff00000000000000000000000000000000000000001673ffffffffffffffffffffffffffffffffffffffff831690811790915560405133907fa3396fd7f6e0a21b50e5089d2da70d5ac0a3bbbd1f617a93f134b7638998019890600090a350565b61061c336000357fffffffff0000000000000000000000000000000000000000000000000000000016611cfd565b610682576040517f08c379a000000000000000000000000000000000000000000000000000000000815260206004820152600c60248201527f554e415554484f52495a454400000000000000000000000000000000000000006044820152606401610335565b6106c373ffffffffffffffffffffffffffffffffffffffff86167f000000000000000000000000000000000000000000000000000000000000000086611e10565b604080516101008101825273ffffffffffffffffffffffffffffffffffffffff87811682528581166020830190815262ffffff8581168486019081523060608601908152426080870190815260a087018c815260c088018b8152600060e08a0190815299517f414bf3890000000000000000000000000000000000000000000000000000000081529851881660048a0152955187166024890152925190931660448701525184166064860152905160848501525160a48401525160c48301529151821660e48201527f00000000000000000000000000000000000000000000000000000000000000009091169063414bf38990610104016020604051808303816000875af11580156107d9573d6000803e3d6000fd5b505050506040513d601f19601f820116820180604052508101906107fd9190612431565b505050505050565b610833336000357fffffffff0000000000000000000000000000000000000000000000000000000016611cfd565b610899576040517f08c379a000000000000000000000000000000000000000000000000000000000815260206004820152600c60248201527f554e415554484f52495a454400000000000000000000000000000000000000006044820152606401610335565b60008773ffffffffffffffffffffffffffffffffffffffff166338d52e0f6040518163ffffffff1660e01b8152600401602060405180830381865afa1580156108e6573d6000803e3d6000fd5b505050506040513d601f19601f8201168201806040525081019061090a919061244a565b6040517f70a0823100000000000000000000000000000000000000000000000000000000815230600482015290915060009073ffffffffffffffffffffffffffffffffffffffff8316906370a0823190602401602060405180830381865afa15801561097a573d6000803e3d6000fd5b505050506040513d601f19601f8201168201806040525081019061099e9190612431565b9050858110610a6f576109c873ffffffffffffffffffffffffffffffffffffffff83168a88611e10565b6040517f4914c00800000000000000000000000000000000000000000000000000000000815273ffffffffffffffffffffffffffffffffffffffff88811660048301526024820188905289811660448301528a1690634914c008906064016020604051808303816000875af1158015610a45573d6000803e3d6000fd5b505050506040513d601f19601f82011682018060405250810190610a699190612431565b50611154565b6000610a7b8288612496565b90508873ffffffffffffffffffffffffffffffffffffffff168a73ffffffffffffffffffffffffffffffffffffffff1614610f09576040805160608101825260008082526020820181905291810191909152606073ffffffffffffffffffffffffffffffffffffffff8816610c895760008b73ffffffffffffffffffffffffffffffffffffffff166338d52e0f6040518163ffffffff1660e01b8152600401602060405180830381865afa158015610b37573d6000803e3d6000fd5b505050506040513d601f19601f82011682018060405250810190610b5b919061244a565b9050610b6886828a611ed5565b92506040518060c001604052808e73ffffffffffffffffffffffffffffffffffffffff1681526020018d73ffffffffffffffffffffffffffffffffffffffff1681526020018c73ffffffffffffffffffffffffffffffffffffffff1681526020018273ffffffffffffffffffffffffffffffffffffffff1681526020018962ffffff168152602001600062ffffff16815250604051602001610c729190600060c08201905073ffffffffffffffffffffffffffffffffffffffff80845116835280602085015116602084015280604085015116604084015280606085015116606084015250608083015162ffffff80821660808501528060a08601511660a0850152505092915050565b604051602081830303815290604052915050610daf565b610c94858989611ed5565b91506040518060c001604052808d73ffffffffffffffffffffffffffffffffffffffff1681526020018c73ffffffffffffffffffffffffffffffffffffffff1681526020018b73ffffffffffffffffffffffffffffffffffffffff1681526020018973ffffffffffffffffffffffffffffffffffffffff1681526020018862ffffff1681526020018762ffffff16815250604051602001610d9d9190600060c08201905073ffffffffffffffffffffffffffffffffffffffff80845116835280602085015116602084015280604085015116604084015280606085015116606084015250608083015162ffffff80821660808501528060a08601511660a0850152505092915050565b60405160208183030381529060405290505b610dd97f000000000000000000000000000000000000000000000000000000000000000083611f67565b73ffffffffffffffffffffffffffffffffffffffff1663128acb0830846020015173ffffffffffffffffffffffffffffffffffffffff168873ffffffffffffffffffffffffffffffffffffffff16148c610e32906124a9565b866020015173ffffffffffffffffffffffffffffffffffffffff168a73ffffffffffffffffffffffffffffffffffffffff1614610e8d57610e88600173fffd8963efd1fc6a506488495d951d5263988d266124e1565b610e9d565b610e9d6401000276a36001612515565b866040518663ffffffff1660e01b8152600401610ebe9594939291906125a6565b60408051808303816000875af1158015610edc573d6000803e3d6000fd5b505050506040513d601f19601f82011682018060405250810190610f0091906125f8565b50505050611152565b6000610f16848888611ed5565b905060006040518060e001604052808d73ffffffffffffffffffffffffffffffffffffffff1681526020018c73ffffffffffffffffffffffffffffffffffffffff1681526020018b73ffffffffffffffffffffffffffffffffffffffff1681526020018a81526020018481526020018973ffffffffffffffffffffffffffffffffffffffff1681526020018862ffffff168152506040516020016110269190600060e08201905073ffffffffffffffffffffffffffffffffffffffff80845116835280602085015116602084015280604085015116604084015260608401516060840152608084015160808401528060a08501511660a08401525062ffffff60c08401511660c083015292915050565b60405160208183030381529060405290506110617f000000000000000000000000000000000000000000000000000000000000000083611f67565b73ffffffffffffffffffffffffffffffffffffffff1663490e6cbc30846000015173ffffffffffffffffffffffffffffffffffffffff168873ffffffffffffffffffffffffffffffffffffffff16146110bb5760006110bd565b855b856020015173ffffffffffffffffffffffffffffffffffffffff168973ffffffffffffffffffffffffffffffffffffffff16146110fb5760006110fd565b865b856040518563ffffffff1660e01b815260040161111d949392919061261c565b600060405180830381600087803b15801561113757600080fd5b505af115801561114b573d6000803e3d6000fd5b5050505050505b505b505050505050505050565b60007fffffffff0000000000000000000000000000000000000000000000000000000082167f89035090000000000000000000000000000000000000000000000000000000001480156111d7575073ffffffffffffffffffffffffffffffffffffffff841660009081526002602052604090205460ff165b949350505050565b61120d336000357fffffffff0000000000000000000000000000000000000000000000000000000016611cfd565b611273576040517f08c379a000000000000000000000000000000000000000000000000000000000815260206004820152600c60248201527f554e415554484f52495a454400000000000000000000000000000000000000006044820152606401610335565b61129473ffffffffffffffffffffffffffffffffffffffff841683836120c0565b505050565b60006112a782840184612661565b90506000816000015173ffffffffffffffffffffffffffffffffffffffff166338d52e0f6040518163ffffffff1660e01b8152600401602060405180830381865afa1580156112fa573d6000803e3d6000fd5b505050506040513d601f19601f8201168201806040525081019061131e919061244a565b90506000611335828460a001518560c00151611ed5565b90506113617f000000000000000000000000000000000000000000000000000000000000000082611f67565b73ffffffffffffffffffffffffffffffffffffffff163373ffffffffffffffffffffffffffffffffffffffff161461139857600080fd5b825160608401516113c09173ffffffffffffffffffffffffffffffffffffffff851691611e10565b82516040808501516060860151602087015192517f4914c00800000000000000000000000000000000000000000000000000000000815273ffffffffffffffffffffffffffffffffffffffff92831660048201526024810191909152918116604483015290911690634914c008906064016020604051808303816000875af1158015611450573d6000803e3d6000fd5b505050506040513d601f19601f820116820180604052508101906114749190612431565b506114e533826000015173ffffffffffffffffffffffffffffffffffffffff168473ffffffffffffffffffffffffffffffffffffffff16146114b657876114b8565b885b85608001516114c79190612734565b73ffffffffffffffffffffffffffffffffffffffff851691906120c0565b50505050505050565b61151c336000357fffffffff0000000000000000000000000000000000000000000000000000000016611cfd565b611582576040517f08c379a000000000000000000000000000000000000000000000000000000000815260206004820152600c60248201527f554e415554484f52495a454400000000000000000000000000000000000000006044820152606401610335565b73ffffffffffffffffffffffffffffffffffffffff16600090815260026020526040902080547fffffffffffffffffffffffffffffffffffffffffffffffffffffffffffffff00169055565b60006115dc82840184612747565b90506000816020015173ffffffffffffffffffffffffffffffffffffffff166338d52e0f6040518163ffffffff1660e01b8152600401602060405180830381865afa15801561162f573d6000803e3d6000fd5b505050506040513d601f19601f82011682018060405250810190611653919061244a565b604083015190915073ffffffffffffffffffffffffffffffffffffffff1615611c26576000826000015173ffffffffffffffffffffffffffffffffffffffff166338d52e0f6040518163ffffffff1660e01b8152600401602060405180830381865afa1580156116c7573d6000803e3d6000fd5b505050506040513d601f19601f820116820180604052508101906116eb919061244a565b905060006117028285606001518660800151611ed5565b905061172e7f000000000000000000000000000000000000000000000000000000000000000082611f67565b73ffffffffffffffffffffffffffffffffffffffff163373ffffffffffffffffffffffffffffffffffffffff161461176557600080fd5b6000816000015173ffffffffffffffffffffffffffffffffffffffff168373ffffffffffffffffffffffffffffffffffffffff16146117a457876117a6565b885b6117af906124a9565b85519091506117d69073ffffffffffffffffffffffffffffffffffffffff85169083611e10565b8451604080870151602088015191517f4914c00800000000000000000000000000000000000000000000000000000000815273ffffffffffffffffffffffffffffffffffffffff918216600482015260248101859052918116604483015290911690634914c008906064016020604051808303816000875af1158015611860573d6000803e3d6000fd5b505050506040513d601f19601f820116820180604052508101906118849190612431565b5060a085015162ffffff1615611bbd5760006118a98587606001518860a00151611ed5565b90506118d57f000000000000000000000000000000000000000000000000000000000000000082611f67565b73ffffffffffffffffffffffffffffffffffffffff1663128acb0830836000015173ffffffffffffffffffffffffffffffffffffffff168873ffffffffffffffffffffffffffffffffffffffff1614866000015173ffffffffffffffffffffffffffffffffffffffff168a6060015173ffffffffffffffffffffffffffffffffffffffff1614611965578c611967565b8d5b611970906124a9565b855173ffffffffffffffffffffffffffffffffffffffff8b81169116146119b5576119b0600173fffd8963efd1fc6a506488495d951d5263988d266124e1565b6119c5565b6119c56401000276a36001612515565b6040518060c00160405280600073ffffffffffffffffffffffffffffffffffffffff1681526020018d6020015173ffffffffffffffffffffffffffffffffffffffff168152602001600073ffffffffffffffffffffffffffffffffffffffff1681526020018d6060015173ffffffffffffffffffffffffffffffffffffffff168152602001600062ffffff1681526020018d60a0015162ffffff16815250604051602001611adb9190600060c08201905073ffffffffffffffffffffffffffffffffffffffff80845116835280602085015116602084015280604085015116604084015280606085015116606084015250608083015162ffffff80821660808501528060a08601511660a0850152505092915050565b6040516020818303038152906040526040518663ffffffff1660e01b8152600401611b0a9594939291906125a6565b60408051808303816000875af1158015611b28573d6000803e3d6000fd5b505050506040513d601f19601f82011682018060405250810190611b4c91906125f8565b5050611bb733846000015173ffffffffffffffffffffffffffffffffffffffff16886060015173ffffffffffffffffffffffffffffffffffffffff1614611b93578a611b95565b8b5b606089015173ffffffffffffffffffffffffffffffffffffffff1691906120c0565b50611c1e565b611c1e33836000015173ffffffffffffffffffffffffffffffffffffffff168673ffffffffffffffffffffffffffffffffffffffff1614611bfe5789611c00565b8a5b73ffffffffffffffffffffffffffffffffffffffff871691906120c0565b5050506107fd565b6000611c3b8284606001518560a00151611ed5565b9050611c677f000000000000000000000000000000000000000000000000000000000000000082611f67565b73ffffffffffffffffffffffffffffffffffffffff163373ffffffffffffffffffffffffffffffffffffffff1614611c9e57600080fd5b6114e533826000015173ffffffffffffffffffffffffffffffffffffffff168473ffffffffffffffffffffffffffffffffffffffff1614611cdf57876114c7565b73ffffffffffffffffffffffffffffffffffffffff841690896120c0565b60015460009073ffffffffffffffffffffffffffffffffffffffff168015801590611de157506040517fb700961300000000000000000000000000000000000000000000000000000000815273ffffffffffffffffffffffffffffffffffffffff85811660048301523060248301527fffffffff000000000000000000000000000000000000000000000000000000008516604483015282169063b700961390606401602060405180830381865afa158015611dbd573d6000803e3d6000fd5b505050506040513d601f19601f82011682018060405250810190611de1919061240f565b80611e06575060005473ffffffffffffffffffffffffffffffffffffffff8581169116145b9150505b92915050565b60006040517f095ea7b3000000000000000000000000000000000000000000000000000000006000528360045282602452602060006044600080895af13d15601f3d1160016000511416171691506000606052806040525080611ecf576040517f08c379a000000000000000000000000000000000000000000000000000000000815260206004820152600e60248201527f415050524f56455f4641494c45440000000000000000000000000000000000006044820152606401610335565b50505050565b60408051606081018252600080825260208201819052918101919091528273ffffffffffffffffffffffffffffffffffffffff168473ffffffffffffffffffffffffffffffffffffffff161115611f2a579192915b506040805160608101825273ffffffffffffffffffffffffffffffffffffffff948516815292909316602083015262ffffff169181019190915290565b6000816020015173ffffffffffffffffffffffffffffffffffffffff16826000015173ffffffffffffffffffffffffffffffffffffffff1610611fa957600080fd5b8151602080840151604080860151815173ffffffffffffffffffffffffffffffffffffffff95861681860152949092168482015262ffffff90911660608085019190915281518085038201815260808501909252815191909201207fff0000000000000000000000000000000000000000000000000000000000000060a08401529085901b7fffffffffffffffffffffffffffffffffffffffff0000000000000000000000001660a183015260b58201527fe34f199b19b2b4f47f68442619d555527d244f78a3297ea89325f843f87b8b5460d582015260f501604080517fffffffffffffffffffffffffffffffffffffffffffffffffffffffffffffffe081840301815291905280516020909101209392505050565b60006040517fa9059cbb000000000000000000000000000000000000000000000000000000006000528360045282602452602060006044600080895af13d15601f3d1160016000511416171691506000606052806040525080611ecf576040517f08c379a000000000000000000000000000000000000000000000000000000000815260206004820152600f60248201527f5452414e534645525f4641494c454400000000000000000000000000000000006044820152606401610335565b73ffffffffffffffffffffffffffffffffffffffff811681146121a157600080fd5b50565b6000602082840312156121b657600080fd5b81356121c18161217f565b9392505050565b803562ffffff811681146121db57600080fd5b919050565b600080600080600060a086880312156121f857600080fd5b85356122038161217f565b945060208601359350604086013561221a8161217f565b92506060860135915061222f608087016121c8565b90509295509295909350565b600080600080600080600060e0888a03121561225657600080fd5b87356122618161217f565b965060208801356122718161217f565b955060408801356122818161217f565b94506060880135935060808801356122988161217f565b92506122a660a089016121c8565b91506122b460c089016121c8565b905092959891949750929550565b6000806000606084860312156122d757600080fd5b83356122e28161217f565b925060208401356122f28161217f565b915060408401357fffffffff000000000000000000000000000000000000000000000000000000008116811461232757600080fd5b809150509250925092565b60008060006060848603121561234757600080fd5b83356123528161217f565b925060208401356123628161217f565b929592945050506040919091013590565b60008083601f84011261238557600080fd5b50813567ffffffffffffffff81111561239d57600080fd5b6020830191508360208285010111156123b557600080fd5b9250929050565b600080600080606085870312156123d257600080fd5b8435935060208501359250604085013567ffffffffffffffff8111156123f757600080fd5b61240387828801612373565b95989497509550505050565b60006020828403121561242157600080fd5b815180151581146121c157600080fd5b60006020828403121561244357600080fd5b5051919050565b60006020828403121561245c57600080fd5b81516121c18161217f565b7f4e487b7100000000000000000000000000000000000000000000000000000000600052601160045260246000fd5b81810381811115611e0a57611e0a612467565b60007f800000000000000000000000000000000000000000000000000000000000000082036124da576124da612467565b5060000390565b73ffffffffffffffffffffffffffffffffffffffff82811682821603908082111561250e5761250e612467565b5092915050565b73ffffffffffffffffffffffffffffffffffffffff81811683821601908082111561250e5761250e612467565b6000815180845260005b818110156125685760208185018101518683018201520161254c565b5060006020828601015260207fffffffffffffffffffffffffffffffffffffffffffffffffffffffffffffffe0601f83011685010191505092915050565b600073ffffffffffffffffffffffffffffffffffffffff8088168352861515602084015285604084015280851660608401525060a060808301526125ed60a0830184612542565b979650505050505050565b6000806040838503121561260b57600080fd5b505080516020909101519092909150565b73ffffffffffffffffffffffffffffffffffffffff851681528360208201528260408201526080606082015260006126576080830184612542565b9695505050505050565b600060e0828403121561267357600080fd5b60405160e0810181811067ffffffffffffffff821117156126bd577f4e487b7100000000000000000000000000000000000000000000000000000000600052604160045260246000fd5b60405282356126cb8161217f565b815260208301356126db8161217f565b602082015260408301356126ee8161217f565b80604083015250606083013560608201526080830135608082015260a08301356127178161217f565b60a082015261272860c084016121c8565b60c08201529392505050565b80820180821115611e0a57611e0a612467565b600060c0828403121561275957600080fd5b60405160c0810181811067ffffffffffffffff821117156127a3577f4e487b7100000000000000000000000000000000000000000000000000000000600052604160045260246000fd5b60405282356127b18161217f565b815260208301356127c18161217f565b602082015260408301356127d48161217f565b604082015260608301356127e78161217f565b60608201526127f8608084016121c8565b608082015261280960a084016121c8565b60a0820152939250505056fea2646970667358221220dc34ea31020590e5247ad78c8e3af5757ade1b01fa1784455fd66f3d40bf5f4b64736f6c63430008110033",
  "devdoc": {
    "kind": "dev",
    "methods": {
      "uniswapV3FlashCallback(uint256,uint256,bytes)": {
        "details": "In the implementation you must repay the pool the tokens sent by flash plus the computed fee amounts. The caller of this method must be checked to be a UniswapV3Pool deployed by the canonical UniswapV3Factory.",
        "params": {
          "data": "Any data passed through by the caller via the IUniswapV3PoolActions#flash call",
          "fee0": "The fee amount in token0 due to the pool by the end of the flash",
          "fee1": "The fee amount in token1 due to the pool by the end of the flash"
        }
      },
      "uniswapV3SwapCallback(int256,int256,bytes)": {
        "details": "In the implementation you must pay the pool tokens owed for the swap. The caller of this method must be checked to be a UniswapV3Pool deployed by the canonical UniswapV3Factory. amount0Delta and amount1Delta can both be 0 if no tokens were swapped.",
        "params": {
          "amount0Delta": "The amount of token0 that was sent (negative) or must be received (positive) by the pool by the end of the swap. If positive, the callback must send that amount of token0 to the pool.",
          "amount1Delta": "The amount of token1 that was sent (negative) or must be received (positive) by the pool by the end of the swap. If positive, the callback must send that amount of token1 to the pool.",
          "data": "Any data passed through by the caller via the IUniswapV3PoolActions#swap call"
        }
      }
    },
    "stateVariables": {
      "MAX_SQRT_RATIO": {
        "details": "The maximum value that can be returned from #getSqrtRatioAtTick. Equivalent to getSqrtRatioAtTick(MAX_TICK)"
      },
      "MIN_SQRT_RATIO": {
        "details": "The minimum value that can be returned from #getSqrtRatioAtTick. Equivalent to getSqrtRatioAtTick(MIN_TICK)"
      }
    },
    "version": 1
  },
  "userdoc": {
    "kind": "user",
    "methods": {
      "uniswapV3FlashCallback(uint256,uint256,bytes)": {
        "notice": "Called to `msg.sender` after transferring to the recipient from IUniswapV3Pool#flash."
      },
      "uniswapV3SwapCallback(int256,int256,bytes)": {
        "notice": "Called to `msg.sender` after executing a swap via IUniswapV3Pool#swap."
      }
    },
    "version": 1
  },
  "storageLayout": {
    "storage": [
      {
        "astId": 1588,
        "contract": "contracts/Liquidator.sol:Liquidator",
        "label": "owner",
        "offset": 0,
        "slot": "0",
        "type": "t_address"
      },
      {
        "astId": 1591,
        "contract": "contracts/Liquidator.sol:Liquidator",
        "label": "authority",
        "offset": 0,
        "slot": "1",
        "type": "t_contract(Authority)1742"
      },
      {
        "astId": 615,
        "contract": "contracts/Liquidator.sol:Liquidator",
        "label": "callers",
        "offset": 0,
        "slot": "2",
        "type": "t_mapping(t_address,t_bool)"
      }
    ],
    "types": {
      "t_address": {
        "encoding": "inplace",
        "label": "address",
        "numberOfBytes": "20"
      },
      "t_bool": {
        "encoding": "inplace",
        "label": "bool",
        "numberOfBytes": "1"
      },
      "t_contract(Authority)1742": {
        "encoding": "inplace",
        "label": "contract Authority",
        "numberOfBytes": "20"
      },
      "t_mapping(t_address,t_bool)": {
        "encoding": "mapping",
        "key": "t_address",
        "label": "mapping(address => bool)",
        "numberOfBytes": "32",
        "value": "t_bool"
      }
    }
  }
}