{
  "address": "0x3cdc16317AAaa6E92342658f5667E6aDe5fd17B0",
  "abi": [
    {
      "inputs": [
        {
          "internalType": "address",
          "name": "factory_",
          "type": "address"
        }
      ],
      "stateMutability": "nonpayable",
      "type": "constructor"
    },
    {
      "anonymous": false,
      "inputs": [
        {
          "indexed": true,
          "internalType": "address",
          "name": "user",
          "type": "address"
        },
        {
          "indexed": true,
          "internalType": "address",
          "name": "newOwner",
          "type": "address"
        }
      ],
      "name": "OwnerUpdated",
      "type": "event"
    },
    {
      "inputs": [
        {
          "internalType": "contract ERC20",
          "name": "asset",
          "type": "address"
        }
      ],
      "name": "drain",
      "outputs": [],
      "stateMutability": "nonpayable",
      "type": "function"
    },
    {
      "inputs": [],
      "name": "factory",
      "outputs": [
        {
          "internalType": "address",
          "name": "",
          "type": "address"
        }
      ],
      "stateMutability": "view",
      "type": "function"
    },
    {
      "inputs": [
        {
          "internalType": "contract IMarket",
          "name": "repayMarket",
          "type": "address"
        },
        {
          "internalType": "contract IMarket",
          "name": "seizeMarket",
          "type": "address"
        },
        {
          "internalType": "address",
          "name": "borrower",
          "type": "address"
        },
        {
          "internalType": "uint256",
          "name": "maxRepay",
          "type": "uint256"
        },
        {
          "internalType": "address",
          "name": "poolPair",
          "type": "address"
        },
        {
          "internalType": "uint24",
          "name": "fee",
          "type": "uint24"
        }
      ],
      "name": "liquidate",
      "outputs": [],
      "stateMutability": "nonpayable",
      "type": "function"
    },
    {
      "inputs": [],
      "name": "owner",
      "outputs": [
        {
          "internalType": "address",
          "name": "",
          "type": "address"
        }
      ],
      "stateMutability": "view",
      "type": "function"
    },
    {
      "inputs": [
        {
          "internalType": "address",
          "name": "newOwner",
          "type": "address"
        }
      ],
      "name": "setOwner",
      "outputs": [],
      "stateMutability": "nonpayable",
      "type": "function"
    },
    {
      "inputs": [
        {
          "internalType": "uint256",
          "name": "fee0",
          "type": "uint256"
        },
        {
          "internalType": "uint256",
          "name": "fee1",
          "type": "uint256"
        },
        {
          "internalType": "bytes",
          "name": "data",
          "type": "bytes"
        }
      ],
      "name": "uniswapV3FlashCallback",
      "outputs": [],
      "stateMutability": "nonpayable",
      "type": "function"
    },
    {
      "inputs": [
        {
          "internalType": "int256",
          "name": "amount0Delta",
          "type": "int256"
        },
        {
          "internalType": "int256",
          "name": "amount1Delta",
          "type": "int256"
        },
        {
          "internalType": "bytes",
          "name": "data",
          "type": "bytes"
        }
      ],
      "name": "uniswapV3SwapCallback",
      "outputs": [],
      "stateMutability": "nonpayable",
      "type": "function"
    }
  ],
  "transactionHash": "0x980001947bb259c76d75c6e879d2ecf9b21bddc0f484d8dd2db2cd2d721b3b96",
  "args": [
    "0x1F98431c8aD98523631AE4a59f267346ea31F984"
  ],
  "numDeployments": 3,
  "solcInputHash": "36693ee2ac93a865ae939f3880db776d",
  "bytecode": "0x60a060405234801561001057600080fd5b506040516119b63803806119b683398101604081905261002f91610081565b600080546001600160a01b031916339081178255604051909182917f8292fce18fa69edf4db7b94ea2e58241df0ae57f97e0a6c9b29067028bf92d76908290a3506001600160a01b03166080526100b1565b60006020828403121561009357600080fd5b81516001600160a01b03811681146100aa57600080fd5b9392505050565b6080516118cf6100e76000396000818160e5015281816105cc0152818161084401528181610a090152610e0d01526118cf6000f3fe608060405234801561001057600080fd5b506004361061007d5760003560e01c8063d3cdfe6d1161005b578063d3cdfe6d14610107578063e9cbafb01461011a578063ece531321461012d578063fa461e331461014057600080fd5b806313af4035146100825780638da5cb5b14610097578063c45a0155146100e0575b600080fd5b610095610090366004611386565b610153565b005b6000546100b79073ffffffffffffffffffffffffffffffffffffffff1681565b60405173ffffffffffffffffffffffffffffffffffffffff909116815260200160405180910390f35b6100b77f000000000000000000000000000000000000000000000000000000000000000081565b6100956101153660046113c2565b610249565b610095610128366004611480565b610966565b61009561013b366004611386565b610bbb565b61009561014e366004611480565b610cf7565b60005473ffffffffffffffffffffffffffffffffffffffff1633146101d9576040517f08c379a000000000000000000000000000000000000000000000000000000000815260206004820152600c60248201527f554e415554484f52495a4544000000000000000000000000000000000000000060448201526064015b60405180910390fd5b600080547fffffffffffffffffffffffff00000000000000000000000000000000000000001673ffffffffffffffffffffffffffffffffffffffff83169081178255604051909133917f8292fce18fa69edf4db7b94ea2e58241df0ae57f97e0a6c9b29067028bf92d769190a350565b60005473ffffffffffffffffffffffffffffffffffffffff1633146102ca576040517f08c379a000000000000000000000000000000000000000000000000000000000815260206004820152600c60248201527f554e415554484f52495a4544000000000000000000000000000000000000000060448201526064016101d0565b60008673ffffffffffffffffffffffffffffffffffffffff166338d52e0f6040518163ffffffff1660e01b8152600401602060405180830381865afa158015610317573d6000803e3d6000fd5b505050506040513d601f19601f8201168201806040525081019061033b91906114d3565b6040517f70a0823100000000000000000000000000000000000000000000000000000000815230600482015290915060009073ffffffffffffffffffffffffffffffffffffffff8316906370a0823190602401602060405180830381865afa1580156103ab573d6000803e3d6000fd5b505050506040513d601f19601f820116820180604052508101906103cf91906114f0565b90508481106104a0576103f973ffffffffffffffffffffffffffffffffffffffff83168987610ff5565b6040517f4914c00800000000000000000000000000000000000000000000000000000000815273ffffffffffffffffffffffffffffffffffffffff8781166004830152602482018790528881166044830152891690634914c008906064016020604051808303816000875af1158015610476573d6000803e3d6000fd5b505050506040513d601f19601f8201168201806040525081019061049a91906114f0565b5061095c565b60006104ac8287611538565b905060006104bb8487876110ba565b90508873ffffffffffffffffffffffffffffffffffffffff168a73ffffffffffffffffffffffffffffffffffffffff161461072057600060405180608001604052808c73ffffffffffffffffffffffffffffffffffffffff1681526020018b73ffffffffffffffffffffffffffffffffffffffff1681526020018a73ffffffffffffffffffffffffffffffffffffffff1681526020018762ffffff168152506040516020016105b69190600060808201905073ffffffffffffffffffffffffffffffffffffffff8084511683528060208501511660208401528060408501511660408401525062ffffff606084015116606083015292915050565b60405160208183030381529060405290506105f17f00000000000000000000000000000000000000000000000000000000000000008361114c565b73ffffffffffffffffffffffffffffffffffffffff1663128acb0830846020015173ffffffffffffffffffffffffffffffffffffffff168873ffffffffffffffffffffffffffffffffffffffff16148b61064a90611551565b866020015173ffffffffffffffffffffffffffffffffffffffff168a73ffffffffffffffffffffffffffffffffffffffff16146106a5576106a0600173fffd8963efd1fc6a506488495d951d5263988d26611589565b6106b5565b6106b56401000276a360016115bd565b866040518663ffffffff1660e01b81526004016106d695949392919061164e565b60408051808303816000875af11580156106f4573d6000803e3d6000fd5b505050506040513d601f19601f8201168201806040525081019061071891906116a0565b505050610959565b60006040518060e001604052808c73ffffffffffffffffffffffffffffffffffffffff1681526020018b73ffffffffffffffffffffffffffffffffffffffff1681526020018a73ffffffffffffffffffffffffffffffffffffffff1681526020018981526020018481526020018873ffffffffffffffffffffffffffffffffffffffff1681526020018762ffffff1681525060405160200161082e9190600060e08201905073ffffffffffffffffffffffffffffffffffffffff80845116835280602085015116602084015280604085015116604084015260608401516060840152608084015160808401528060a08501511660a08401525062ffffff60c08401511660c083015292915050565b60405160208183030381529060405290506108697f00000000000000000000000000000000000000000000000000000000000000008361114c565b73ffffffffffffffffffffffffffffffffffffffff1663490e6cbc30846000015173ffffffffffffffffffffffffffffffffffffffff168873ffffffffffffffffffffffffffffffffffffffff16146108c35760006108c5565b855b856020015173ffffffffffffffffffffffffffffffffffffffff168973ffffffffffffffffffffffffffffffffffffffff1614610903576000610905565b865b856040518563ffffffff1660e01b815260040161092594939291906116c4565b600060405180830381600087803b15801561093f57600080fd5b505af1158015610953573d6000803e3d6000fd5b50505050505b50505b5050505050505050565b600061097482840184611709565b90506000816000015173ffffffffffffffffffffffffffffffffffffffff166338d52e0f6040518163ffffffff1660e01b8152600401602060405180830381865afa1580156109c7573d6000803e3d6000fd5b505050506040513d601f19601f820116820180604052508101906109eb91906114d3565b90506000610a02828460a001518560c001516110ba565b9050610a2e7f00000000000000000000000000000000000000000000000000000000000000008261114c565b73ffffffffffffffffffffffffffffffffffffffff163373ffffffffffffffffffffffffffffffffffffffff1614610a6557600080fd5b82516060840151610a8d9173ffffffffffffffffffffffffffffffffffffffff851691610ff5565b82516040808501516060860151602087015192517f4914c00800000000000000000000000000000000000000000000000000000000815273ffffffffffffffffffffffffffffffffffffffff92831660048201526024810191909152918116604483015290911690634914c008906064016020604051808303816000875af1158015610b1d573d6000803e3d6000fd5b505050506040513d601f19601f82011682018060405250810190610b4191906114f0565b50610bb233826000015173ffffffffffffffffffffffffffffffffffffffff168473ffffffffffffffffffffffffffffffffffffffff1614610b835787610b85565b885b8560800151610b9491906117dc565b73ffffffffffffffffffffffffffffffffffffffff851691906112a5565b50505050505050565b60005473ffffffffffffffffffffffffffffffffffffffff163314610c3c576040517f08c379a000000000000000000000000000000000000000000000000000000000815260206004820152600c60248201527f554e415554484f52495a4544000000000000000000000000000000000000000060448201526064016101d0565b6000546040517f70a08231000000000000000000000000000000000000000000000000000000008152306004820152610cf49173ffffffffffffffffffffffffffffffffffffffff90811691908416906370a0823190602401602060405180830381865afa158015610cb2573d6000803e3d6000fd5b505050506040513d601f19601f82011682018060405250810190610cd691906114f0565b73ffffffffffffffffffffffffffffffffffffffff841691906112a5565b50565b6000610d05828401846117ef565b90506000816000015173ffffffffffffffffffffffffffffffffffffffff166338d52e0f6040518163ffffffff1660e01b8152600401602060405180830381865afa158015610d58573d6000803e3d6000fd5b505050506040513d601f19601f82011682018060405250810190610d7c91906114d3565b90506000826020015173ffffffffffffffffffffffffffffffffffffffff166338d52e0f6040518163ffffffff1660e01b8152600401602060405180830381865afa158015610dcf573d6000803e3d6000fd5b505050506040513d601f19601f82011682018060405250810190610df391906114d3565b90506000610e06838386606001516110ba565b9050610e327f00000000000000000000000000000000000000000000000000000000000000008261114c565b73ffffffffffffffffffffffffffffffffffffffff163373ffffffffffffffffffffffffffffffffffffffff1614610e6957600080fd5b6000816000015173ffffffffffffffffffffffffffffffffffffffff168473ffffffffffffffffffffffffffffffffffffffff1614610ea85787610eaa565b885b610eb390611551565b8551909150610eda9073ffffffffffffffffffffffffffffffffffffffff86169083610ff5565b8451604080870151602088015191517f4914c00800000000000000000000000000000000000000000000000000000000815273ffffffffffffffffffffffffffffffffffffffff918216600482015260248101859052918116604483015290911690634914c008906064016020604051808303816000875af1158015610f64573d6000803e3d6000fd5b505050506040513d601f19601f82011682018060405250810190610f8891906114f0565b50610fea33836000015173ffffffffffffffffffffffffffffffffffffffff168573ffffffffffffffffffffffffffffffffffffffff1614610fca5789610fcc565b8a5b73ffffffffffffffffffffffffffffffffffffffff861691906112a5565b505050505050505050565b60006040517f095ea7b3000000000000000000000000000000000000000000000000000000006000528360045282602452602060006044600080895af13d15601f3d11600160005114161716915060006060528060405250806110b4576040517f08c379a000000000000000000000000000000000000000000000000000000000815260206004820152600e60248201527f415050524f56455f4641494c454400000000000000000000000000000000000060448201526064016101d0565b50505050565b60408051606081018252600080825260208201819052918101919091528273ffffffffffffffffffffffffffffffffffffffff168473ffffffffffffffffffffffffffffffffffffffff16111561110f579192915b506040805160608101825273ffffffffffffffffffffffffffffffffffffffff948516815292909316602083015262ffffff169181019190915290565b6000816020015173ffffffffffffffffffffffffffffffffffffffff16826000015173ffffffffffffffffffffffffffffffffffffffff161061118e57600080fd5b8151602080840151604080860151815173ffffffffffffffffffffffffffffffffffffffff95861681860152949092168482015262ffffff90911660608085019190915281518085038201815260808501909252815191909201207fff0000000000000000000000000000000000000000000000000000000000000060a08401529085901b7fffffffffffffffffffffffffffffffffffffffff0000000000000000000000001660a183015260b58201527fe34f199b19b2b4f47f68442619d555527d244f78a3297ea89325f843f87b8b5460d582015260f501604080517fffffffffffffffffffffffffffffffffffffffffffffffffffffffffffffffe081840301815291905280516020909101209392505050565b60006040517fa9059cbb000000000000000000000000000000000000000000000000000000006000528360045282602452602060006044600080895af13d15601f3d11600160005114161716915060006060528060405250806110b4576040517f08c379a000000000000000000000000000000000000000000000000000000000815260206004820152600f60248201527f5452414e534645525f4641494c4544000000000000000000000000000000000060448201526064016101d0565b73ffffffffffffffffffffffffffffffffffffffff81168114610cf457600080fd5b60006020828403121561139857600080fd5b81356113a381611364565b9392505050565b803562ffffff811681146113bd57600080fd5b919050565b60008060008060008060c087890312156113db57600080fd5b86356113e681611364565b955060208701356113f681611364565b9450604087013561140681611364565b935060608701359250608087013561141d81611364565b915061142b60a088016113aa565b90509295509295509295565b60008083601f84011261144957600080fd5b50813567ffffffffffffffff81111561146157600080fd5b60208301915083602082850101111561147957600080fd5b9250929050565b6000806000806060858703121561149657600080fd5b8435935060208501359250604085013567ffffffffffffffff8111156114bb57600080fd5b6114c787828801611437565b95989497509550505050565b6000602082840312156114e557600080fd5b81516113a381611364565b60006020828403121561150257600080fd5b5051919050565b7f4e487b7100000000000000000000000000000000000000000000000000000000600052601160045260246000fd5b8181038181111561154b5761154b611509565b92915050565b60007f8000000000000000000000000000000000000000000000000000000000000000820361158257611582611509565b5060000390565b73ffffffffffffffffffffffffffffffffffffffff8281168282160390808211156115b6576115b6611509565b5092915050565b73ffffffffffffffffffffffffffffffffffffffff8181168382160190808211156115b6576115b6611509565b6000815180845260005b81811015611610576020818501810151868301820152016115f4565b5060006020828601015260207fffffffffffffffffffffffffffffffffffffffffffffffffffffffffffffffe0601f83011685010191505092915050565b600073ffffffffffffffffffffffffffffffffffffffff8088168352861515602084015285604084015280851660608401525060a0608083015261169560a08301846115ea565b979650505050505050565b600080604083850312156116b357600080fd5b505080516020909101519092909150565b73ffffffffffffffffffffffffffffffffffffffff851681528360208201528260408201526080606082015260006116ff60808301846115ea565b9695505050505050565b600060e0828403121561171b57600080fd5b60405160e0810181811067ffffffffffffffff82111715611765577f4e487b7100000000000000000000000000000000000000000000000000000000600052604160045260246000fd5b604052823561177381611364565b8152602083013561178381611364565b6020820152604083013561179681611364565b80604083015250606083013560608201526080830135608082015260a08301356117bf81611364565b60a08201526117d060c084016113aa565b60c08201529392505050565b8082018082111561154b5761154b611509565b60006080828403121561180157600080fd5b6040516080810181811067ffffffffffffffff8211171561184b577f4e487b7100000000000000000000000000000000000000000000000000000000600052604160045260246000fd5b604052823561185981611364565b8152602083013561186981611364565b6020820152604083013561187c81611364565b604082015261188d606084016113aa565b6060820152939250505056fea2646970667358221220de1788e2f161d2e60b649576e89e3075a3387b59cae983a6dcca7677bb51c79d64736f6c63430008100033",
  "devdoc": {
    "kind": "dev",
    "methods": {
      "uniswapV3FlashCallback(uint256,uint256,bytes)": {
        "details": "In the implementation you must repay the pool the tokens sent by flash plus the computed fee amounts. The caller of this method must be checked to be a UniswapV3Pool deployed by the canonical UniswapV3Factory.",
        "params": {
          "data": "Any data passed through by the caller via the IUniswapV3PoolActions#flash call",
          "fee0": "The fee amount in token0 due to the pool by the end of the flash",
          "fee1": "The fee amount in token1 due to the pool by the end of the flash"
        }
      },
      "uniswapV3SwapCallback(int256,int256,bytes)": {
        "details": "In the implementation you must pay the pool tokens owed for the swap. The caller of this method must be checked to be a UniswapV3Pool deployed by the canonical UniswapV3Factory. amount0Delta and amount1Delta can both be 0 if no tokens were swapped.",
        "params": {
          "amount0Delta": "The amount of token0 that was sent (negative) or must be received (positive) by the pool by the end of the swap. If positive, the callback must send that amount of token0 to the pool.",
          "amount1Delta": "The amount of token1 that was sent (negative) or must be received (positive) by the pool by the end of the swap. If positive, the callback must send that amount of token1 to the pool.",
          "data": "Any data passed through by the caller via the IUniswapV3PoolActions#swap call"
        }
      }
    },
    "stateVariables": {
      "MAX_SQRT_RATIO": {
        "details": "The maximum value that can be returned from #getSqrtRatioAtTick. Equivalent to getSqrtRatioAtTick(MAX_TICK)"
      },
      "MIN_SQRT_RATIO": {
        "details": "The minimum value that can be returned from #getSqrtRatioAtTick. Equivalent to getSqrtRatioAtTick(MIN_TICK)"
      }
    },
    "version": 1
  },
  "userdoc": {
    "kind": "user",
    "methods": {
      "uniswapV3FlashCallback(uint256,uint256,bytes)": {
        "notice": "Called to `msg.sender` after transferring to the recipient from IUniswapV3Pool#flash."
      },
      "uniswapV3SwapCallback(int256,int256,bytes)": {
        "notice": "Called to `msg.sender` after executing a swap via IUniswapV3Pool#swap."
      }
    },
    "version": 1
  },
  "storageLayout": {
    "storage": [
      {
        "astId": 1110,
        "contract": "contracts/Liquidator.sol:Liquidator",
        "label": "owner",
        "offset": 0,
        "slot": "0",
        "type": "t_address"
      }
    ],
    "types": {
      "t_address": {
        "encoding": "inplace",
        "label": "address",
        "numberOfBytes": "20"
      }
    }
  }
}