{
  "address": "0x38ac980A09cb6940805c38B9F520BF7dC54657F3",
  "abi": [
    {
      "inputs": [
        {
          "internalType": "address",
          "name": "factory_",
          "type": "address"
        },
        {
          "internalType": "contract ISwapRouter",
          "name": "swapRouter_",
          "type": "address"
        }
      ],
      "stateMutability": "nonpayable",
      "type": "constructor"
    },
    {
      "anonymous": false,
      "inputs": [
        {
          "indexed": true,
          "internalType": "address",
          "name": "user",
          "type": "address"
        },
        {
          "indexed": true,
          "internalType": "address",
          "name": "newOwner",
          "type": "address"
        }
      ],
      "name": "OwnerUpdated",
      "type": "event"
    },
    {
      "inputs": [
        {
          "internalType": "contract ERC20",
          "name": "asset",
          "type": "address"
        }
      ],
      "name": "drain",
      "outputs": [],
      "stateMutability": "nonpayable",
      "type": "function"
    },
    {
      "inputs": [],
      "name": "factory",
      "outputs": [
        {
          "internalType": "address",
          "name": "",
          "type": "address"
        }
      ],
      "stateMutability": "view",
      "type": "function"
    },
    {
      "inputs": [
        {
          "internalType": "contract IMarket",
          "name": "repayMarket",
          "type": "address"
        },
        {
          "internalType": "contract IMarket",
          "name": "seizeMarket",
          "type": "address"
        },
        {
          "internalType": "address",
          "name": "borrower",
          "type": "address"
        },
        {
          "internalType": "uint256",
          "name": "maxRepay",
          "type": "uint256"
        },
        {
          "internalType": "address",
          "name": "flashPair",
          "type": "address"
        },
        {
          "internalType": "uint24",
          "name": "flashFee",
          "type": "uint24"
        },
        {
          "internalType": "uint24",
          "name": "swapFee",
          "type": "uint24"
        }
      ],
      "name": "liquidate",
      "outputs": [],
      "stateMutability": "nonpayable",
      "type": "function"
    },
    {
      "inputs": [],
      "name": "owner",
      "outputs": [
        {
          "internalType": "address",
          "name": "",
          "type": "address"
        }
      ],
      "stateMutability": "view",
      "type": "function"
    },
    {
      "inputs": [
        {
          "internalType": "address",
          "name": "newOwner",
          "type": "address"
        }
      ],
      "name": "setOwner",
      "outputs": [],
      "stateMutability": "nonpayable",
      "type": "function"
    },
    {
      "inputs": [],
      "name": "swapRouter",
      "outputs": [
        {
          "internalType": "contract ISwapRouter",
          "name": "",
          "type": "address"
        }
      ],
      "stateMutability": "view",
      "type": "function"
    },
    {
      "inputs": [
        {
          "internalType": "uint256",
          "name": "fee0",
          "type": "uint256"
        },
        {
          "internalType": "uint256",
          "name": "fee1",
          "type": "uint256"
        },
        {
          "internalType": "bytes",
          "name": "data",
          "type": "bytes"
        }
      ],
      "name": "uniswapV3FlashCallback",
      "outputs": [],
      "stateMutability": "nonpayable",
      "type": "function"
    }
  ],
  "transactionHash": "0xc8a4b7c72b2fd0905fd9ecbd85c2122e911a56e6597fe13baa63140e170d9787",
  "args": [
    "0x1F98431c8aD98523631AE4a59f267346ea31F984",
    "0xE592427A0AEce92De3Edee1F18E0157C05861564"
  ],
  "numDeployments": 1,
  "solcInputHash": "9a30c3c74deeb615c94c8abdcc4b9c41",
  "bytecode": "0x60c060405234801561001057600080fd5b5060405161152a38038061152a83398101604081905261002f9161009f565b600080546001600160a01b031916339081178255604051909182917f8292fce18fa69edf4db7b94ea2e58241df0ae57f97e0a6c9b29067028bf92d76908290a3506001600160a01b039182166080521660a0526100d9565b6001600160a01b038116811461009c57600080fd5b50565b600080604083850312156100b257600080fd5b82516100bd81610087565b60208401519092506100ce81610087565b809150509250929050565b60805160a0516114186101126000396000818160f8015261095e01526000818161011f01528181610595015261075a01526114186000f3fe608060405234801561001057600080fd5b506004361061007d5760003560e01c8063c31c9c071161005b578063c31c9c07146100f3578063c45a01551461011a578063e9cbafb014610141578063ece531321461015457600080fd5b806313af40351461008257806389035090146100975780638da5cb5b146100aa575b600080fd5b61009561009036600461100a565b610167565b005b6100956100a5366004611041565b61025d565b6000546100ca9073ffffffffffffffffffffffffffffffffffffffff1681565b60405173ffffffffffffffffffffffffffffffffffffffff909116815260200160405180910390f35b6100ca7f000000000000000000000000000000000000000000000000000000000000000081565b6100ca7f000000000000000000000000000000000000000000000000000000000000000081565b61009561014f3660046110c8565b6106b7565b61009561016236600461100a565b610b2d565b60005473ffffffffffffffffffffffffffffffffffffffff1633146101ed576040517f08c379a000000000000000000000000000000000000000000000000000000000815260206004820152600c60248201527f554e415554484f52495a4544000000000000000000000000000000000000000060448201526064015b60405180910390fd5b600080547fffffffffffffffffffffffff00000000000000000000000000000000000000001673ffffffffffffffffffffffffffffffffffffffff83169081178255604051909133917f8292fce18fa69edf4db7b94ea2e58241df0ae57f97e0a6c9b29067028bf92d769190a350565b60005473ffffffffffffffffffffffffffffffffffffffff1633146102de576040517f08c379a000000000000000000000000000000000000000000000000000000000815260206004820152600c60248201527f554e415554484f52495a4544000000000000000000000000000000000000000060448201526064016101e4565b60008773ffffffffffffffffffffffffffffffffffffffff166338d52e0f6040518163ffffffff1660e01b8152600401602060405180830381865afa15801561032b573d6000803e3d6000fd5b505050506040513d601f19601f8201168201806040525081019061034f9190611148565b6040517f70a0823100000000000000000000000000000000000000000000000000000000815230600482015290915060009073ffffffffffffffffffffffffffffffffffffffff8316906370a0823190602401602060405180830381865afa1580156103bf573d6000803e3d6000fd5b505050506040513d601f19601f820116820180604052508101906103e39190611165565b90508581106104b45761040d73ffffffffffffffffffffffffffffffffffffffff83168a88610c69565b6040517f4914c00800000000000000000000000000000000000000000000000000000000815273ffffffffffffffffffffffffffffffffffffffff88811660048301526024820188905289811660448301528a1690634914c008906064016020604051808303816000875af115801561048a573d6000803e3d6000fd5b505050506040513d601f19601f820116820180604052508101906104ae9190611165565b506106ac565b60006104c082886111ad565b905060006104cf848888610d2e565b905060006040518061010001604052808d73ffffffffffffffffffffffffffffffffffffffff1681526020018c73ffffffffffffffffffffffffffffffffffffffff1681526020018b73ffffffffffffffffffffffffffffffffffffffff1681526020018a81526020018481526020018973ffffffffffffffffffffffffffffffffffffffff1681526020018862ffffff1681526020018762ffffff1681525060405160200161057f91906111c4565b60405160208183030381529060405290506105ba7f000000000000000000000000000000000000000000000000000000000000000083610dc0565b73ffffffffffffffffffffffffffffffffffffffff1663490e6cbc30846000015173ffffffffffffffffffffffffffffffffffffffff168873ffffffffffffffffffffffffffffffffffffffff1614610614576000610616565b855b856020015173ffffffffffffffffffffffffffffffffffffffff168973ffffffffffffffffffffffffffffffffffffffff1614610654576000610656565b865b856040518563ffffffff1660e01b8152600401610676949392919061124d565b600060405180830381600087803b15801561069057600080fd5b505af11580156106a4573d6000803e3d6000fd5b505050505050505b505050505050505050565b60006106c5828401846112ec565b90506000816000015173ffffffffffffffffffffffffffffffffffffffff166338d52e0f6040518163ffffffff1660e01b8152600401602060405180830381865afa158015610718573d6000803e3d6000fd5b505050506040513d601f19601f8201168201806040525081019061073c9190611148565b90506000610753828460a001518560c00151610d2e565b905061077f7f000000000000000000000000000000000000000000000000000000000000000082610dc0565b73ffffffffffffffffffffffffffffffffffffffff163373ffffffffffffffffffffffffffffffffffffffff16146107b657600080fd5b825160608401516107de9173ffffffffffffffffffffffffffffffffffffffff851691610c69565b82516040808501516060860151602087015192517f4914c00800000000000000000000000000000000000000000000000000000000815273ffffffffffffffffffffffffffffffffffffffff92831660048201526024810191909152918116604483015290911690634914c008906064016020604051808303816000875af115801561086e573d6000803e3d6000fd5b505050506040513d601f19601f820116820180604052508101906108929190611165565b506000816000015173ffffffffffffffffffffffffffffffffffffffff168373ffffffffffffffffffffffffffffffffffffffff16146108d257866108d4565b875b84608001516108e391906113ca565b90506000846020015173ffffffffffffffffffffffffffffffffffffffff166338d52e0f6040518163ffffffff1660e01b8152600401602060405180830381865afa158015610936573d6000803e3d6000fd5b505050506040513d601f19601f8201168201806040525081019061095a9190611148565b90507f00000000000000000000000000000000000000000000000000000000000000006109be73ffffffffffffffffffffffffffffffffffffffff8316827fffffffffffffffffffffffffffffffffffffffffffffffffffffffffffffffff610c69565b604080516101008101825273ffffffffffffffffffffffffffffffffffffffff84811682528781166020830190815260e08a81015162ffffff9081168587019081523060608701908152426080880190815260a088018c81527fffffffffffffffffffffffffffffffffffffffffffffffffffffffffffffffff60c08a019081526000968a0196875299517fdb3e21980000000000000000000000000000000000000000000000000000000081529851881660048a015295518716602489015291519092166044870152905184166064860152516084850152905160a4840152925160c48301529151821660e48201529082169063db3e219890610104016020604051808303816000875af1158015610adb573d6000803e3d6000fd5b505050506040513d601f19601f82011682018060405250810190610aff9190611165565b50610b2173ffffffffffffffffffffffffffffffffffffffff86163385610f19565b50505050505050505050565b60005473ffffffffffffffffffffffffffffffffffffffff163314610bae576040517f08c379a000000000000000000000000000000000000000000000000000000000815260206004820152600c60248201527f554e415554484f52495a4544000000000000000000000000000000000000000060448201526064016101e4565b6000546040517f70a08231000000000000000000000000000000000000000000000000000000008152306004820152610c669173ffffffffffffffffffffffffffffffffffffffff90811691908416906370a0823190602401602060405180830381865afa158015610c24573d6000803e3d6000fd5b505050506040513d601f19601f82011682018060405250810190610c489190611165565b73ffffffffffffffffffffffffffffffffffffffff84169190610f19565b50565b60006040517f095ea7b3000000000000000000000000000000000000000000000000000000006000528360045282602452602060006044600080895af13d15601f3d1160016000511416171691506000606052806040525080610d28576040517f08c379a000000000000000000000000000000000000000000000000000000000815260206004820152600e60248201527f415050524f56455f4641494c454400000000000000000000000000000000000060448201526064016101e4565b50505050565b60408051606081018252600080825260208201819052918101919091528273ffffffffffffffffffffffffffffffffffffffff168473ffffffffffffffffffffffffffffffffffffffff161115610d83579192915b506040805160608101825273ffffffffffffffffffffffffffffffffffffffff948516815292909316602083015262ffffff169181019190915290565b6000816020015173ffffffffffffffffffffffffffffffffffffffff16826000015173ffffffffffffffffffffffffffffffffffffffff1610610e0257600080fd5b8151602080840151604080860151815173ffffffffffffffffffffffffffffffffffffffff95861681860152949092168482015262ffffff90911660608085019190915281518085038201815260808501909252815191909201207fff0000000000000000000000000000000000000000000000000000000000000060a08401529085901b7fffffffffffffffffffffffffffffffffffffffff0000000000000000000000001660a183015260b58201527fe34f199b19b2b4f47f68442619d555527d244f78a3297ea89325f843f87b8b5460d582015260f501604080517fffffffffffffffffffffffffffffffffffffffffffffffffffffffffffffffe081840301815291905280516020909101209392505050565b60006040517fa9059cbb000000000000000000000000000000000000000000000000000000006000528360045282602452602060006044600080895af13d15601f3d1160016000511416171691506000606052806040525080610d28576040517f08c379a000000000000000000000000000000000000000000000000000000000815260206004820152600f60248201527f5452414e534645525f4641494c4544000000000000000000000000000000000060448201526064016101e4565b73ffffffffffffffffffffffffffffffffffffffff81168114610c6657600080fd5b803561100581610fd8565b919050565b60006020828403121561101c57600080fd5b813561102781610fd8565b9392505050565b803562ffffff8116811461100557600080fd5b600080600080600080600060e0888a03121561105c57600080fd5b873561106781610fd8565b9650602088013561107781610fd8565b9550604088013561108781610fd8565b945060608801359350608088013561109e81610fd8565b92506110ac60a0890161102e565b91506110ba60c0890161102e565b905092959891949750929550565b600080600080606085870312156110de57600080fd5b8435935060208501359250604085013567ffffffffffffffff8082111561110457600080fd5b818701915087601f83011261111857600080fd5b81358181111561112757600080fd5b88602082850101111561113957600080fd5b95989497505060200194505050565b60006020828403121561115a57600080fd5b815161102781610fd8565b60006020828403121561117757600080fd5b5051919050565b7f4e487b7100000000000000000000000000000000000000000000000000000000600052601160045260246000fd5b6000828210156111bf576111bf61117e565b500390565b60006101008201905073ffffffffffffffffffffffffffffffffffffffff80845116835280602085015116602084015280604085015116604084015260608401516060840152608084015160808401528060a08501511660a08401525062ffffff60c08401511660c083015260e083015161124660e084018262ffffff169052565b5092915050565b73ffffffffffffffffffffffffffffffffffffffff8516815260006020858184015284604084015260806060840152835180608085015260005b818110156112a35785810183015185820160a001528201611287565b818111156112b557600060a083870101525b50601f017fffffffffffffffffffffffffffffffffffffffffffffffffffffffffffffffe0169290920160a0019695505050505050565b600061010080838503121561130057600080fd5b6040519081019067ffffffffffffffff8211818310171561134a577f4e487b7100000000000000000000000000000000000000000000000000000000600052604160045260246000fd5b8160405261135784610ffa565b815261136560208501610ffa565b602082015261137660408501610ffa565b6040820152606084013560608201526080840135608082015261139b60a08501610ffa565b60a08201526113ac60c0850161102e565b60c08201526113bd60e0850161102e565b60e0820152949350505050565b600082198211156113dd576113dd61117e565b50019056fea2646970667358221220df06a963bf953b62119bf5abed7e6a6bd0ecf210b8d5976381f4c873e62dde9d64736f6c634300080f0033",
  "devdoc": {
    "kind": "dev",
    "methods": {
      "uniswapV3FlashCallback(uint256,uint256,bytes)": {
        "details": "In the implementation you must repay the pool the tokens sent by flash plus the computed fee amounts. The caller of this method must be checked to be a UniswapV3Pool deployed by the canonical UniswapV3Factory.",
        "params": {
          "data": "Any data passed through by the caller via the IUniswapV3PoolActions#flash call",
          "fee0": "The fee amount in token0 due to the pool by the end of the flash",
          "fee1": "The fee amount in token1 due to the pool by the end of the flash"
        }
      }
    },
    "version": 1
  },
  "userdoc": {
    "kind": "user",
    "methods": {
      "uniswapV3FlashCallback(uint256,uint256,bytes)": {
        "notice": "Called to `msg.sender` after transferring to the recipient from IUniswapV3Pool#flash."
      }
    },
    "version": 1
  },
  "storageLayout": {
    "storage": [
      {
        "astId": 1080,
        "contract": "contracts/Liquidator.sol:Liquidator",
        "label": "owner",
        "offset": 0,
        "slot": "0",
        "type": "t_address"
      }
    ],
    "types": {
      "t_address": {
        "encoding": "inplace",
        "label": "address",
        "numberOfBytes": "20"
      }
    }
  }
}